{
  "_format": "hh-sol-artifact-1",
  "contractName": "POLYGONBridge",
  "sourceName": "contracts/POLYGONBridge.sol",
  "abi": [
    {
      "inputs": [
        {
          "internalType": "address",
          "name": "_token",
          "type": "address"
        }
      ],
      "stateMutability": "nonpayable",
      "type": "constructor"
    },
    {
      "anonymous": false,
      "inputs": [
        {
          "indexed": true,
          "internalType": "address",
          "name": "from",
          "type": "address"
        },
        {
          "indexed": false,
          "internalType": "address",
          "name": "to",
          "type": "address"
        },
        {
          "indexed": true,
          "internalType": "uint256",
          "name": "amount",
          "type": "uint256"
        },
        {
          "indexed": false,
          "internalType": "uint256",
          "name": "date",
          "type": "uint256"
        },
        {
          "indexed": false,
          "internalType": "uint256",
          "name": "nonce",
          "type": "uint256"
        },
        {
          "indexed": false,
          "internalType": "bytes",
          "name": "signature",
          "type": "bytes"
        },
        {
          "indexed": true,
          "internalType": "enum Bridge.Type",
          "name": "step",
          "type": "uint8"
        }
      ],
      "name": "Transfer",
      "type": "event"
    },
    {
      "inputs": [
        {
          "internalType": "address",
          "name": "to",
          "type": "address"
        },
        {
          "internalType": "uint256",
          "name": "amount",
          "type": "uint256"
        },
        {
          "internalType": "bytes",
          "name": "signature",
          "type": "bytes"
        }
      ],
      "name": "burn",
      "outputs": [],
      "stateMutability": "nonpayable",
      "type": "function"
    },
    {
      "inputs": [
        {
          "internalType": "address",
          "name": "",
          "type": "address"
        },
        {
          "internalType": "uint256",
          "name": "",
          "type": "uint256"
        }
      ],
      "name": "hasProcessed",
      "outputs": [
        {
          "internalType": "bool",
          "name": "",
          "type": "bool"
        }
      ],
      "stateMutability": "view",
      "type": "function"
    },
    {
      "inputs": [
        {
          "internalType": "address",
          "name": "from",
          "type": "address"
        },
        {
          "internalType": "address",
          "name": "to",
          "type": "address"
        },
        {
          "internalType": "uint256",
          "name": "amount",
          "type": "uint256"
        },
        {
          "internalType": "uint256",
          "name": "nonce",
          "type": "uint256"
        },
        {
          "internalType": "bytes",
          "name": "signature",
          "type": "bytes"
        }
      ],
      "name": "mint",
      "outputs": [],
      "stateMutability": "nonpayable",
      "type": "function"
    },
    {
      "inputs": [],
      "name": "token",
      "outputs": [
        {
          "internalType": "contract Token",
          "name": "",
          "type": "address"
        }
      ],
      "stateMutability": "view",
      "type": "function"
    },
    {
      "inputs": [
        {
          "internalType": "address",
          "name": "",
          "type": "address"
        }
      ],
      "name": "transferCount",
      "outputs": [
        {
          "internalType": "uint256",
          "name": "",
          "type": "uint256"
        }
      ],
      "stateMutability": "view",
      "type": "function"
    }
  ],
  "bytecode": "0x60806040523480156200001157600080fd5b50604051620012e5380380620012e58339818101604052810190620000379190620000ea565b80806000806101000a81548173ffffffffffffffffffffffffffffffffffffffff021916908373ffffffffffffffffffffffffffffffffffffffff16021790555050506200011c565b600080fd5b600073ffffffffffffffffffffffffffffffffffffffff82169050919050565b6000620000b28262000085565b9050919050565b620000c481620000a5565b8114620000d057600080fd5b50565b600081519050620000e481620000b9565b92915050565b60006020828403121562000103576200010262000080565b5b60006200011384828501620000d3565b91505092915050565b6111b9806200012c6000396000f3fe608060405234801561001057600080fd5b50600436106100575760003560e01c80632dc74c201461005c5780633dc876ca1461008c57806344d17187146100bc57806352555702146100d8578063fc0c546a146100f4575b600080fd5b61007660048036038101906100719190610956565b610112565b604051610083919061099c565b60405180910390f35b6100a660048036038101906100a191906109e3565b61012a565b6040516100b39190610a3e565b60405180910390f35b6100d660048036038101906100d19190610abe565b610159565b005b6100f260048036038101906100ed9190610b32565b610325565b005b6100fc6105d0565b6040516101099190610c2b565b60405180910390f35b60026020528060005260406000206000915090505481565b60016020528160005260406000206020528060005260406000206000915091509054906101000a900460ff1681565b6001600260003373ffffffffffffffffffffffffffffffffffffffff1673ffffffffffffffffffffffffffffffffffffffff168152602001908152602001600020546101a59190610c75565b600260003373ffffffffffffffffffffffffffffffffffffffff1673ffffffffffffffffffffffffffffffffffffffff1681526020019081526020016000208190555060008054906101000a900473ffffffffffffffffffffffffffffffffffffffff1673ffffffffffffffffffffffffffffffffffffffff16639dc29fac33856040518363ffffffff1660e01b8152600401610243929190610cda565b600060405180830381600087803b15801561025d57600080fd5b505af1158015610271573d6000803e3d6000fd5b505050506000600181111561028957610288610d03565b5b833373ffffffffffffffffffffffffffffffffffffffff167fce5a9b86edd3b998c3948a7934c7ecf7dba73c4c5bcf56cf576bca4aa2beeb308742600260003373ffffffffffffffffffffffffffffffffffffffff1673ffffffffffffffffffffffffffffffffffffffff168152602001908152602001600020548888604051610317959493929190610d90565b60405180910390a450505050565b600085858560405160200161033c93929190610e47565b604051602081830303815290604052805190602001209050600061035f826105f4565b905060006103b18286868080601f016020809104026020016040519081016040528093929190818152602001838380828437600081840152601f19601f82011690508083019250505050505050610624565b90508873ffffffffffffffffffffffffffffffffffffffff168173ffffffffffffffffffffffffffffffffffffffff1614610421576040517f08c379a000000000000000000000000000000000000000000000000000000000815260040161041890610ee1565b60405180910390fd5b6000600260008a73ffffffffffffffffffffffffffffffffffffffff1673ffffffffffffffffffffffffffffffffffffffff16815260200190815260200160002054905060018060008b73ffffffffffffffffffffffffffffffffffffffff1673ffffffffffffffffffffffffffffffffffffffff168152602001908152602001600020600083815260200190815260200160002060006101000a81548160ff02191690831515021790555060008054906101000a900473ffffffffffffffffffffffffffffffffffffffff1673ffffffffffffffffffffffffffffffffffffffff166340c10f198a8a6040518363ffffffff1660e01b8152600401610528929190610cda565b600060405180830381600087803b15801561054257600080fd5b505af1158015610556573d6000803e3d6000fd5b5050505060018081111561056d5761056c610d03565b5b888b73ffffffffffffffffffffffffffffffffffffffff167fce5a9b86edd3b998c3948a7934c7ecf7dba73c4c5bcf56cf576bca4aa2beeb308c428c8c8c6040516105bc959493929190610d90565b60405180910390a450505050505050505050565b60008054906101000a900473ffffffffffffffffffffffffffffffffffffffff1681565b6000816040516020016106079190610f83565b604051602081830303815290604052805190602001209050919050565b6000806000610633858561064b565b915091506106408161069d565b819250505092915050565b60008060418351141561068d5760008060006020860151925060408601519150606086015160001a90506106818782858561080b565b94509450505050610696565b60006002915091505b9250929050565b600060048111156106b1576106b0610d03565b5b8160048111156106c4576106c3610d03565b5b14156106cf57610808565b600160048111156106e3576106e2610d03565b5b8160048111156106f6576106f5610d03565b5b1415610737576040517f08c379a000000000000000000000000000000000000000000000000000000000815260040161072e90610ff5565b60405180910390fd5b6002600481111561074b5761074a610d03565b5b81600481111561075e5761075d610d03565b5b141561079f576040517f08c379a000000000000000000000000000000000000000000000000000000000815260040161079690611061565b60405180910390fd5b600360048111156107b3576107b2610d03565b5b8160048111156107c6576107c5610d03565b5b1415610807576040517f08c379a00000000000000000000000000000000000000000000000000000000081526004016107fe906110f3565b60405180910390fd5b5b50565b6000807f7fffffffffffffffffffffffffffffff5d576e7357a4501ddfe92f46681b20a08360001c11156108465760006003915091506108e5565b60006001878787876040516000815260200160405260405161086b949392919061113e565b6020604051602081039080840390855afa15801561088d573d6000803e3d6000fd5b505050602060405103519050600073ffffffffffffffffffffffffffffffffffffffff168173ffffffffffffffffffffffffffffffffffffffff1614156108dc576000600192509250506108e5565b80600092509250505b94509492505050565b600080fd5b600080fd5b600073ffffffffffffffffffffffffffffffffffffffff82169050919050565b6000610923826108f8565b9050919050565b61093381610918565b811461093e57600080fd5b50565b6000813590506109508161092a565b92915050565b60006020828403121561096c5761096b6108ee565b5b600061097a84828501610941565b91505092915050565b6000819050919050565b61099681610983565b82525050565b60006020820190506109b1600083018461098d565b92915050565b6109c081610983565b81146109cb57600080fd5b50565b6000813590506109dd816109b7565b92915050565b600080604083850312156109fa576109f96108ee565b5b6000610a0885828601610941565b9250506020610a19858286016109ce565b9150509250929050565b60008115159050919050565b610a3881610a23565b82525050565b6000602082019050610a536000830184610a2f565b92915050565b600080fd5b600080fd5b600080fd5b60008083601f840112610a7e57610a7d610a59565b5b8235905067ffffffffffffffff811115610a9b57610a9a610a5e565b5b602083019150836001820283011115610ab757610ab6610a63565b5b9250929050565b60008060008060608587031215610ad857610ad76108ee565b5b6000610ae687828801610941565b9450506020610af7878288016109ce565b935050604085013567ffffffffffffffff811115610b1857610b176108f3565b5b610b2487828801610a68565b925092505092959194509250565b60008060008060008060a08789031215610b4f57610b4e6108ee565b5b6000610b5d89828a01610941565b9650506020610b6e89828a01610941565b9550506040610b7f89828a016109ce565b9450506060610b9089828a016109ce565b935050608087013567ffffffffffffffff811115610bb157610bb06108f3565b5b610bbd89828a01610a68565b92509250509295509295509295565b6000819050919050565b6000610bf1610bec610be7846108f8565b610bcc565b6108f8565b9050919050565b6000610c0382610bd6565b9050919050565b6000610c1582610bf8565b9050919050565b610c2581610c0a565b82525050565b6000602082019050610c406000830184610c1c565b92915050565b7f4e487b7100000000000000000000000000000000000000000000000000000000600052601160045260246000fd5b6000610c8082610983565b9150610c8b83610983565b9250827fffffffffffffffffffffffffffffffffffffffffffffffffffffffffffffffff03821115610cc057610cbf610c46565b5b828201905092915050565b610cd481610918565b82525050565b6000604082019050610cef6000830185610ccb565b610cfc602083018461098d565b9392505050565b7f4e487b7100000000000000000000000000000000000000000000000000000000600052602160045260246000fd5b600082825260208201905092915050565b82818337600083830152505050565b6000601f19601f8301169050919050565b6000610d6f8385610d32565b9350610d7c838584610d43565b610d8583610d52565b840190509392505050565b6000608082019050610da56000830188610ccb565b610db2602083018761098d565b610dbf604083018661098d565b8181036060830152610dd2818486610d63565b90509695505050505050565b60008160601b9050919050565b6000610df682610dde565b9050919050565b6000610e0882610deb565b9050919050565b610e20610e1b82610918565b610dfd565b82525050565b6000819050919050565b610e41610e3c82610983565b610e26565b82525050565b6000610e538286610e0f565b601482019150610e638285610e30565b602082019150610e738284610e30565b602082019150819050949350505050565b600082825260208201905092915050565b7f496e636f7272656374205369676e617475726500000000000000000000000000600082015250565b6000610ecb601383610e84565b9150610ed682610e95565b602082019050919050565b60006020820190508181036000830152610efa81610ebe565b9050919050565b600081905092915050565b7f19457468657265756d205369676e6564204d6573736167653a0a333200000000600082015250565b6000610f42601c83610f01565b9150610f4d82610f0c565b601c82019050919050565b6000819050919050565b6000819050919050565b610f7d610f7882610f58565b610f62565b82525050565b6000610f8e82610f35565b9150610f9a8284610f6c565b60208201915081905092915050565b7f45434453413a20696e76616c6964207369676e61747572650000000000000000600082015250565b6000610fdf601883610e84565b9150610fea82610fa9565b602082019050919050565b6000602082019050818103600083015261100e81610fd2565b9050919050565b7f45434453413a20696e76616c6964207369676e6174757265206c656e67746800600082015250565b600061104b601f83610e84565b915061105682611015565b602082019050919050565b6000602082019050818103600083015261107a8161103e565b9050919050565b7f45434453413a20696e76616c6964207369676e6174757265202773272076616c60008201527f7565000000000000000000000000000000000000000000000000000000000000602082015250565b60006110dd602283610e84565b91506110e882611081565b604082019050919050565b6000602082019050818103600083015261110c816110d0565b9050919050565b61111c81610f58565b82525050565b600060ff82169050919050565b61113881611122565b82525050565b60006080820190506111536000830187611113565b611160602083018661112f565b61116d6040830185611113565b61117a6060830184611113565b9594505050505056fea264697066735822122047db07e252840d870290f39d3549d14d8388485ad9dc25e8f861e9eef2e4ae5a64736f6c634300080a0033",
  "linkReferences": {},
  "deployedLinkReferences": {}
}